{
  "_format": "hh-sol-artifact-1",
  "contractName": "MyToken",
  "sourceName": "contracts/MyToken.sol",
  "abi": [
    {
      "inputs": [],
      "stateMutability": "nonpayable",
      "type": "constructor"
    },
    {
      "inputs": [],
      "name": "AccessControlBadConfirmation",
      "type": "error"
    },
    {
      "inputs": [
        {
          "internalType": "address",
          "name": "account",
          "type": "address"
        },
        {
          "internalType": "bytes32",
          "name": "neededRole",
          "type": "bytes32"
        }
      ],
      "name": "AccessControlUnauthorizedAccount",
      "type": "error"
    },
    {
      "inputs": [],
      "name": "CheckpointUnorderedInsertion",
      "type": "error"
    },
    {
      "inputs": [],
      "name": "ECDSAInvalidSignature",
      "type": "error"
    },
    {
      "inputs": [
        {
          "internalType": "uint256",
          "name": "length",
          "type": "uint256"
        }
      ],
      "name": "ECDSAInvalidSignatureLength",
      "type": "error"
    },
    {
      "inputs": [
        {
          "internalType": "bytes32",
          "name": "s",
          "type": "bytes32"
        }
      ],
      "name": "ECDSAInvalidSignatureS",
      "type": "error"
    },
    {
      "inputs": [
        {
          "internalType": "uint256",
          "name": "increasedSupply",
          "type": "uint256"
        },
        {
          "internalType": "uint256",
          "name": "cap",
          "type": "uint256"
        }
      ],
      "name": "ERC20ExceededSafeSupply",
      "type": "error"
    },
    {
      "inputs": [
        {
          "internalType": "address",
          "name": "spender",
          "type": "address"
        },
        {
          "internalType": "uint256",
          "name": "allowance",
          "type": "uint256"
        },
        {
          "internalType": "uint256",
          "name": "needed",
          "type": "uint256"
        }
      ],
      "name": "ERC20InsufficientAllowance",
      "type": "error"
    },
    {
      "inputs": [
        {
          "internalType": "address",
          "name": "sender",
          "type": "address"
        },
        {
          "internalType": "uint256",
          "name": "balance",
          "type": "uint256"
        },
        {
          "internalType": "uint256",
          "name": "needed",
          "type": "uint256"
        }
      ],
      "name": "ERC20InsufficientBalance",
      "type": "error"
    },
    {
      "inputs": [
        {
          "internalType": "address",
          "name": "approver",
          "type": "address"
        }
      ],
      "name": "ERC20InvalidApprover",
      "type": "error"
    },
    {
      "inputs": [
        {
          "internalType": "address",
          "name": "receiver",
          "type": "address"
        }
      ],
      "name": "ERC20InvalidReceiver",
      "type": "error"
    },
    {
      "inputs": [
        {
          "internalType": "address",
          "name": "sender",
          "type": "address"
        }
      ],
      "name": "ERC20InvalidSender",
      "type": "error"
    },
    {
      "inputs": [
        {
          "internalType": "address",
          "name": "spender",
          "type": "address"
        }
      ],
      "name": "ERC20InvalidSpender",
      "type": "error"
    },
    {
      "inputs": [
        {
          "internalType": "uint256",
          "name": "deadline",
          "type": "uint256"
        }
      ],
      "name": "ERC2612ExpiredSignature",
      "type": "error"
    },
    {
      "inputs": [
        {
          "internalType": "address",
          "name": "signer",
          "type": "address"
        },
        {
          "internalType": "address",
          "name": "owner",
          "type": "address"
        }
      ],
      "name": "ERC2612InvalidSigner",
      "type": "error"
    },
    {
      "inputs": [
        {
          "internalType": "uint256",
          "name": "timepoint",
          "type": "uint256"
        },
        {
          "internalType": "uint48",
          "name": "clock",
          "type": "uint48"
        }
      ],
      "name": "ERC5805FutureLookup",
      "type": "error"
    },
    {
      "inputs": [],
      "name": "ERC6372InconsistentClock",
      "type": "error"
    },
    {
      "inputs": [
        {
          "internalType": "address",
          "name": "account",
          "type": "address"
        },
        {
          "internalType": "uint256",
          "name": "currentNonce",
          "type": "uint256"
        }
      ],
      "name": "InvalidAccountNonce",
      "type": "error"
    },
    {
      "inputs": [],
      "name": "InvalidShortString",
      "type": "error"
    },
    {
      "inputs": [
        {
          "internalType": "uint8",
          "name": "bits",
          "type": "uint8"
        },
        {
          "internalType": "uint256",
          "name": "value",
          "type": "uint256"
        }
      ],
      "name": "SafeCastOverflowedUintDowncast",
      "type": "error"
    },
    {
      "inputs": [
        {
          "internalType": "string",
          "name": "str",
          "type": "string"
        }
      ],
      "name": "StringTooLong",
      "type": "error"
    },
    {
      "inputs": [
        {
          "internalType": "uint256",
          "name": "expiry",
          "type": "uint256"
        }
      ],
      "name": "VotesExpiredSignature",
      "type": "error"
    },
    {
      "anonymous": false,
      "inputs": [
        {
          "indexed": true,
          "internalType": "address",
          "name": "owner",
          "type": "address"
        },
        {
          "indexed": true,
          "internalType": "address",
          "name": "spender",
          "type": "address"
        },
        {
          "indexed": false,
          "internalType": "uint256",
          "name": "value",
          "type": "uint256"
        }
      ],
      "name": "Approval",
      "type": "event"
    },
    {
      "anonymous": false,
      "inputs": [
        {
          "indexed": true,
          "internalType": "address",
          "name": "delegator",
          "type": "address"
        },
        {
          "indexed": true,
          "internalType": "address",
          "name": "fromDelegate",
          "type": "address"
        },
        {
          "indexed": true,
          "internalType": "address",
          "name": "toDelegate",
          "type": "address"
        }
      ],
      "name": "DelegateChanged",
      "type": "event"
    },
    {
      "anonymous": false,
      "inputs": [
        {
          "indexed": true,
          "internalType": "address",
          "name": "delegate",
          "type": "address"
        },
        {
          "indexed": false,
          "internalType": "uint256",
          "name": "previousVotes",
          "type": "uint256"
        },
        {
          "indexed": false,
          "internalType": "uint256",
          "name": "newVotes",
          "type": "uint256"
        }
      ],
      "name": "DelegateVotesChanged",
      "type": "event"
    },
    {
      "anonymous": false,
      "inputs": [],
      "name": "EIP712DomainChanged",
      "type": "event"
    },
    {
      "anonymous": false,
      "inputs": [
        {
          "indexed": true,
          "internalType": "bytes32",
          "name": "role",
          "type": "bytes32"
        },
        {
          "indexed": true,
          "internalType": "bytes32",
          "name": "previousAdminRole",
          "type": "bytes32"
        },
        {
          "indexed": true,
          "internalType": "bytes32",
          "name": "newAdminRole",
          "type": "bytes32"
        }
      ],
      "name": "RoleAdminChanged",
      "type": "event"
    },
    {
      "anonymous": false,
      "inputs": [
        {
          "indexed": true,
          "internalType": "bytes32",
          "name": "role",
          "type": "bytes32"
        },
        {
          "indexed": true,
          "internalType": "address",
          "name": "account",
          "type": "address"
        },
        {
          "indexed": true,
          "internalType": "address",
          "name": "sender",
          "type": "address"
        }
      ],
      "name": "RoleGranted",
      "type": "event"
    },
    {
      "anonymous": false,
      "inputs": [
        {
          "indexed": true,
          "internalType": "bytes32",
          "name": "role",
          "type": "bytes32"
        },
        {
          "indexed": true,
          "internalType": "address",
          "name": "account",
          "type": "address"
        },
        {
          "indexed": true,
          "internalType": "address",
          "name": "sender",
          "type": "address"
        }
      ],
      "name": "RoleRevoked",
      "type": "event"
    },
    {
      "anonymous": false,
      "inputs": [
        {
          "indexed": true,
          "internalType": "address",
          "name": "from",
          "type": "address"
        },
        {
          "indexed": true,
          "internalType": "address",
          "name": "to",
          "type": "address"
        },
        {
          "indexed": false,
          "internalType": "uint256",
          "name": "value",
          "type": "uint256"
        }
      ],
      "name": "Transfer",
      "type": "event"
    },
    {
      "inputs": [],
      "name": "CLOCK_MODE",
      "outputs": [
        {
          "internalType": "string",
          "name": "",
          "type": "string"
        }
      ],
      "stateMutability": "view",
      "type": "function"
    },
    {
      "inputs": [],
      "name": "DEFAULT_ADMIN_ROLE",
      "outputs": [
        {
          "internalType": "bytes32",
          "name": "",
          "type": "bytes32"
        }
      ],
      "stateMutability": "view",
      "type": "function"
    },
    {
      "inputs": [],
      "name": "DOMAIN_SEPARATOR",
      "outputs": [
        {
          "internalType": "bytes32",
          "name": "",
          "type": "bytes32"
        }
      ],
      "stateMutability": "view",
      "type": "function"
    },
    {
      "inputs": [],
      "name": "MINTER_ROLE",
      "outputs": [
        {
          "internalType": "bytes32",
          "name": "",
          "type": "bytes32"
        }
      ],
      "stateMutability": "view",
      "type": "function"
    },
    {
      "inputs": [
        {
          "internalType": "address",
          "name": "owner",
          "type": "address"
        },
        {
          "internalType": "address",
          "name": "spender",
          "type": "address"
        }
      ],
      "name": "allowance",
      "outputs": [
        {
          "internalType": "uint256",
          "name": "",
          "type": "uint256"
        }
      ],
      "stateMutability": "view",
      "type": "function"
    },
    {
      "inputs": [
        {
          "internalType": "address",
          "name": "spender",
          "type": "address"
        },
        {
          "internalType": "uint256",
          "name": "value",
          "type": "uint256"
        }
      ],
      "name": "approve",
      "outputs": [
        {
          "internalType": "bool",
          "name": "",
          "type": "bool"
        }
      ],
      "stateMutability": "nonpayable",
      "type": "function"
    },
    {
      "inputs": [
        {
          "internalType": "address",
          "name": "account",
          "type": "address"
        }
      ],
      "name": "balanceOf",
      "outputs": [
        {
          "internalType": "uint256",
          "name": "",
          "type": "uint256"
        }
      ],
      "stateMutability": "view",
      "type": "function"
    },
    {
      "inputs": [
        {
          "internalType": "address",
          "name": "account",
          "type": "address"
        },
        {
          "internalType": "uint32",
          "name": "pos",
          "type": "uint32"
        }
      ],
      "name": "checkpoints",
      "outputs": [
        {
          "components": [
            {
              "internalType": "uint48",
              "name": "_key",
              "type": "uint48"
            },
            {
              "internalType": "uint208",
              "name": "_value",
              "type": "uint208"
            }
          ],
          "internalType": "struct Checkpoints.Checkpoint208",
          "name": "",
          "type": "tuple"
        }
      ],
      "stateMutability": "view",
      "type": "function"
    },
    {
      "inputs": [],
      "name": "clock",
      "outputs": [
        {
          "internalType": "uint48",
          "name": "",
          "type": "uint48"
        }
      ],
      "stateMutability": "view",
      "type": "function"
    },
    {
      "inputs": [],
      "name": "decimals",
      "outputs": [
        {
          "internalType": "uint8",
          "name": "",
          "type": "uint8"
        }
      ],
      "stateMutability": "view",
      "type": "function"
    },
    {
      "inputs": [
        {
          "internalType": "address",
          "name": "delegatee",
          "type": "address"
        }
      ],
      "name": "delegate",
      "outputs": [],
      "stateMutability": "nonpayable",
      "type": "function"
    },
    {
      "inputs": [
        {
          "internalType": "address",
          "name": "delegatee",
          "type": "address"
        },
        {
          "internalType": "uint256",
          "name": "nonce",
          "type": "uint256"
        },
        {
          "internalType": "uint256",
          "name": "expiry",
          "type": "uint256"
        },
        {
          "internalType": "uint8",
          "name": "v",
          "type": "uint8"
        },
        {
          "internalType": "bytes32",
          "name": "r",
          "type": "bytes32"
        },
        {
          "internalType": "bytes32",
          "name": "s",
          "type": "bytes32"
        }
      ],
      "name": "delegateBySig",
      "outputs": [],
      "stateMutability": "nonpayable",
      "type": "function"
    },
    {
      "inputs": [
        {
          "internalType": "address",
          "name": "account",
          "type": "address"
        }
      ],
      "name": "delegates",
      "outputs": [
        {
          "internalType": "address",
          "name": "",
          "type": "address"
        }
      ],
      "stateMutability": "view",
      "type": "function"
    },
    {
      "inputs": [],
      "name": "eip712Domain",
      "outputs": [
        {
          "internalType": "bytes1",
          "name": "fields",
          "type": "bytes1"
        },
        {
          "internalType": "string",
          "name": "name",
          "type": "string"
        },
        {
          "internalType": "string",
          "name": "version",
          "type": "string"
        },
        {
          "internalType": "uint256",
          "name": "chainId",
          "type": "uint256"
        },
        {
          "internalType": "address",
          "name": "verifyingContract",
          "type": "address"
        },
        {
          "internalType": "bytes32",
          "name": "salt",
          "type": "bytes32"
        },
        {
          "internalType": "uint256[]",
          "name": "extensions",
          "type": "uint256[]"
        }
      ],
      "stateMutability": "view",
      "type": "function"
    },
    {
      "inputs": [
        {
          "internalType": "uint256",
          "name": "timepoint",
          "type": "uint256"
        }
      ],
      "name": "getPastTotalSupply",
      "outputs": [
        {
          "internalType": "uint256",
          "name": "",
          "type": "uint256"
        }
      ],
      "stateMutability": "view",
      "type": "function"
    },
    {
      "inputs": [
        {
          "internalType": "address",
          "name": "account",
          "type": "address"
        },
        {
          "internalType": "uint256",
          "name": "timepoint",
          "type": "uint256"
        }
      ],
      "name": "getPastVotes",
      "outputs": [
        {
          "internalType": "uint256",
          "name": "",
          "type": "uint256"
        }
      ],
      "stateMutability": "view",
      "type": "function"
    },
    {
      "inputs": [
        {
          "internalType": "bytes32",
          "name": "role",
          "type": "bytes32"
        }
      ],
      "name": "getRoleAdmin",
      "outputs": [
        {
          "internalType": "bytes32",
          "name": "",
          "type": "bytes32"
        }
      ],
      "stateMutability": "view",
      "type": "function"
    },
    {
      "inputs": [
        {
          "internalType": "address",
          "name": "account",
          "type": "address"
        },
        {
          "internalType": "uint256",
          "name": "targetBlockNumber",
          "type": "uint256"
        }
      ],
      "name": "getTokenBalanceAtBlock",
      "outputs": [
        {
          "internalType": "uint256",
          "name": "",
          "type": "uint256"
        }
      ],
      "stateMutability": "view",
      "type": "function"
    },
    {
      "inputs": [
        {
          "internalType": "address",
          "name": "account",
          "type": "address"
        }
      ],
      "name": "getVotes",
      "outputs": [
        {
          "internalType": "uint256",
          "name": "",
          "type": "uint256"
        }
      ],
      "stateMutability": "view",
      "type": "function"
    },
    {
      "inputs": [
        {
          "internalType": "bytes32",
          "name": "role",
          "type": "bytes32"
        },
        {
          "internalType": "address",
          "name": "account",
          "type": "address"
        }
      ],
      "name": "grantRole",
      "outputs": [],
      "stateMutability": "nonpayable",
      "type": "function"
    },
    {
      "inputs": [
        {
          "internalType": "bytes32",
          "name": "role",
          "type": "bytes32"
        },
        {
          "internalType": "address",
          "name": "account",
          "type": "address"
        }
      ],
      "name": "hasRole",
      "outputs": [
        {
          "internalType": "bool",
          "name": "",
          "type": "bool"
        }
      ],
      "stateMutability": "view",
      "type": "function"
    },
    {
      "inputs": [
        {
          "internalType": "address",
          "name": "to",
          "type": "address"
        },
        {
          "internalType": "uint256",
          "name": "amount",
          "type": "uint256"
        }
      ],
      "name": "mint",
      "outputs": [],
      "stateMutability": "nonpayable",
      "type": "function"
    },
    {
      "inputs": [],
      "name": "name",
      "outputs": [
        {
          "internalType": "string",
          "name": "",
          "type": "string"
        }
      ],
      "stateMutability": "view",
      "type": "function"
    },
    {
      "inputs": [
        {
          "internalType": "address",
          "name": "owner",
          "type": "address"
        }
      ],
      "name": "nonces",
      "outputs": [
        {
          "internalType": "uint256",
          "name": "",
          "type": "uint256"
        }
      ],
      "stateMutability": "view",
      "type": "function"
    },
    {
      "inputs": [
        {
          "internalType": "address",
          "name": "account",
          "type": "address"
        }
      ],
      "name": "numCheckpoints",
      "outputs": [
        {
          "internalType": "uint32",
          "name": "",
          "type": "uint32"
        }
      ],
      "stateMutability": "view",
      "type": "function"
    },
    {
      "inputs": [
        {
          "internalType": "address",
          "name": "owner",
          "type": "address"
        },
        {
          "internalType": "address",
          "name": "spender",
          "type": "address"
        },
        {
          "internalType": "uint256",
          "name": "value",
          "type": "uint256"
        },
        {
          "internalType": "uint256",
          "name": "deadline",
          "type": "uint256"
        },
        {
          "internalType": "uint8",
          "name": "v",
          "type": "uint8"
        },
        {
          "internalType": "bytes32",
          "name": "r",
          "type": "bytes32"
        },
        {
          "internalType": "bytes32",
          "name": "s",
          "type": "bytes32"
        }
      ],
      "name": "permit",
      "outputs": [],
      "stateMutability": "nonpayable",
      "type": "function"
    },
    {
      "inputs": [
        {
          "internalType": "bytes32",
          "name": "role",
          "type": "bytes32"
        },
        {
          "internalType": "address",
          "name": "callerConfirmation",
          "type": "address"
        }
      ],
      "name": "renounceRole",
      "outputs": [],
      "stateMutability": "nonpayable",
      "type": "function"
    },
    {
      "inputs": [
        {
          "internalType": "bytes32",
          "name": "role",
          "type": "bytes32"
        },
        {
          "internalType": "address",
          "name": "account",
          "type": "address"
        }
      ],
      "name": "revokeRole",
      "outputs": [],
      "stateMutability": "nonpayable",
      "type": "function"
    },
    {
      "inputs": [
        {
          "internalType": "bytes4",
          "name": "interfaceId",
          "type": "bytes4"
        }
      ],
      "name": "supportsInterface",
      "outputs": [
        {
          "internalType": "bool",
          "name": "",
          "type": "bool"
        }
      ],
      "stateMutability": "view",
      "type": "function"
    },
    {
      "inputs": [],
      "name": "symbol",
      "outputs": [
        {
          "internalType": "string",
          "name": "",
          "type": "string"
        }
      ],
      "stateMutability": "view",
      "type": "function"
    },
    {
      "inputs": [],
      "name": "totalSupply",
      "outputs": [
        {
          "internalType": "uint256",
          "name": "",
          "type": "uint256"
        }
      ],
      "stateMutability": "view",
      "type": "function"
    },
    {
      "inputs": [
        {
          "internalType": "address",
          "name": "to",
          "type": "address"
        },
        {
          "internalType": "uint256",
          "name": "value",
          "type": "uint256"
        }
      ],
      "name": "transfer",
      "outputs": [
        {
          "internalType": "bool",
          "name": "",
          "type": "bool"
        }
      ],
      "stateMutability": "nonpayable",
      "type": "function"
    },
    {
      "inputs": [
        {
          "internalType": "address",
          "name": "from",
          "type": "address"
        },
        {
          "internalType": "address",
          "name": "to",
          "type": "address"
        },
        {
          "internalType": "uint256",
          "name": "value",
          "type": "uint256"
        }
      ],
      "name": "transferFrom",
      "outputs": [
        {
          "internalType": "bool",
          "name": "",
          "type": "bool"
        }
      ],
      "stateMutability": "nonpayable",
      "type": "function"
    }
  ],
  "bytecode": "0x6101606040523480156200001257600080fd5b506040518060400160405280600781526020017f4d79546f6b656e00000000000000000000000000000000000000000000000000815250806040518060400160405280600181526020017f31000000000000000000000000000000000000000000000000000000000000008152506040518060400160405280600781526020017f4d79546f6b656e000000000000000000000000000000000000000000000000008152506040518060400160405280600381526020017f4d544b00000000000000000000000000000000000000000000000000000000008152508160039081620000fd91906200072f565b5080600490816200010f91906200072f565b505050620001286005836200021260201b90919060201c565b6101208181525050620001466006826200021260201b90919060201c565b6101408181525050818051906020012060e08181525050808051906020012061010081815250504660a08181525050620001856200026a60201b60201c565b608081815250503073ffffffffffffffffffffffffffffffffffffffff1660c08173ffffffffffffffffffffffffffffffffffffffff1681525050505050620001d86000801b33620002c760201b60201c565b506200020b7f9f2df0fed2c77648de5860a4cc508cd0818c85b8b8a1ab4ceeef8d981c8956a633620002c760201b60201c565b5062000a39565b600060208351101562000238576200023083620003cb60201b60201c565b905062000264565b826200024a836200043860201b60201c565b60000190816200025b91906200072f565b5060ff60001b90505b92915050565b60007f8b73c3c69bb8fe3d512ecc4cf759cc79239f7b179b0ffacaa9a75d522b39400f60e051610100514630604051602001620002ac95949392919062000887565b60405160208183030381529060405280519060200120905090565b6000620002db83836200044260201b60201c565b620003c0576001600b600085815260200190815260200160002060000160008473ffffffffffffffffffffffffffffffffffffffff1673ffffffffffffffffffffffffffffffffffffffff16815260200190815260200160002060006101000a81548160ff0219169083151502179055506200035c620004ad60201b60201c565b73ffffffffffffffffffffffffffffffffffffffff168273ffffffffffffffffffffffffffffffffffffffff16847f2f8788117e7eff1d82e926ec794901d17c78024a50270940304540a733656f0d60405160405180910390a460019050620003c5565b600090505b92915050565b600080829050601f815111156200041b57826040517f305a27a900000000000000000000000000000000000000000000000000000000815260040162000412919062000973565b60405180910390fd5b8051816200042990620009c9565b60001c1760001b915050919050565b6000819050919050565b6000600b600084815260200190815260200160002060000160008373ffffffffffffffffffffffffffffffffffffffff1673ffffffffffffffffffffffffffffffffffffffff16815260200190815260200160002060009054906101000a900460ff16905092915050565b600033905090565b600081519050919050565b7f4e487b7100000000000000000000000000000000000000000000000000000000600052604160045260246000fd5b7f4e487b7100000000000000000000000000000000000000000000000000000000600052602260045260246000fd5b600060028204905060018216806200053757607f821691505b6020821081036200054d576200054c620004ef565b5b50919050565b60008190508160005260206000209050919050565b60006020601f8301049050919050565b600082821b905092915050565b600060088302620005b77fffffffffffffffffffffffffffffffffffffffffffffffffffffffffffffffff8262000578565b620005c3868362000578565b95508019841693508086168417925050509392505050565b6000819050919050565b6000819050919050565b6000620006106200060a6200060484620005db565b620005e5565b620005db565b9050919050565b6000819050919050565b6200062c83620005ef565b620006446200063b8262000617565b84845462000585565b825550505050565b600090565b6200065b6200064c565b6200066881848462000621565b505050565b5b8181101562000690576200068460008262000651565b6001810190506200066e565b5050565b601f821115620006df57620006a98162000553565b620006b48462000568565b81016020851015620006c4578190505b620006dc620006d38562000568565b8301826200066d565b50505b505050565b600082821c905092915050565b60006200070460001984600802620006e4565b1980831691505092915050565b60006200071f8383620006f1565b9150826002028217905092915050565b6200073a82620004b5565b67ffffffffffffffff811115620007565762000755620004c0565b5b6200076282546200051e565b6200076f82828562000694565b600060209050601f831160018114620007a7576000841562000792578287015190505b6200079e858262000711565b8655506200080e565b601f198416620007b78662000553565b60005b82811015620007e157848901518255600182019150602085019450602081019050620007ba565b86831015620008015784890151620007fd601f891682620006f1565b8355505b6001600288020188555050505b505050505050565b6000819050919050565b6200082b8162000816565b82525050565b6200083c81620005db565b82525050565b600073ffffffffffffffffffffffffffffffffffffffff82169050919050565b60006200086f8262000842565b9050919050565b620008818162000862565b82525050565b600060a0820190506200089e600083018862000820565b620008ad602083018762000820565b620008bc604083018662000820565b620008cb606083018562000831565b620008da608083018462000876565b9695505050505050565b600082825260208201905092915050565b60005b8381101562000915578082015181840152602081019050620008f8565b60008484015250505050565b6000601f19601f8301169050919050565b60006200093f82620004b5565b6200094b8185620008e4565b93506200095d818560208601620008f5565b620009688162000921565b840191505092915050565b600060208201905081810360008301526200098f818462000932565b905092915050565b600081519050919050565b6000819050602082019050919050565b6000620009c0825162000816565b80915050919050565b6000620009d68262000997565b82620009e284620009a2565b9050620009ef81620009b2565b9250602082101562000a325762000a2d7fffffffffffffffffffffffffffffffffffffffffffffffffffffffffffffffff8360200360080262000578565b831692505b5050919050565b60805160a05160c05160e05161010051610120516101405161410f62000a946000396000611a1c015260006119e101526000611e8e01526000611e6d015260006114ce015260006115240152600061154d015261410f6000f3fe608060405234801561001057600080fd5b50600436106101fb5760003560e01c80636fcfff451161011a5780639ab24eb0116100ad578063d505accf1161007c578063d505accf14610640578063d53913931461065c578063d547741f1461067a578063dd62ed3e14610696578063f1127ed8146106c6576101fb565b80639ab24eb0146105a6578063a217fddf146105d6578063a9059cbb146105f4578063c3cda52014610624576101fb565b80638e539e8c116100e95780638e539e8c1461050a57806391d148541461053a57806391ddadf41461056a57806395d89b4114610588576101fb565b80636fcfff451461045657806370a08231146104865780637ecebe00146104b657806384b0196e146104e6576101fb565b80633644e515116101925780634bf5d7e9116101615780634bf5d7e9146103bc5780634ea12aa8146103da578063587cde1e1461040a5780635c19a95c1461043a576101fb565b80633644e5151461033657806336568abe146103545780633a46b1a81461037057806340c10f19146103a0576101fb565b806323b872dd116101ce57806323b872dd1461029c578063248a9ca3146102cc5780632f2ff15d146102fc578063313ce56714610318576101fb565b806301ffc9a71461020057806306fdde0314610230578063095ea7b31461024e57806318160ddd1461027e575b600080fd5b61021a6004803603810190610215919061326b565b6106f6565b60405161022791906132b3565b60405180910390f35b610238610770565b604051610245919061335e565b60405180910390f35b61026860048036038101906102639190613414565b610802565b60405161027591906132b3565b60405180910390f35b610286610825565b6040516102939190613463565b60405180910390f35b6102b660048036038101906102b1919061347e565b61082f565b6040516102c391906132b3565b60405180910390f35b6102e660048036038101906102e19190613507565b61085e565b6040516102f39190613543565b60405180910390f35b6103166004803603810190610311919061355e565b61087e565b005b6103206108a0565b60405161032d91906135ba565b60405180910390f35b61033e6108a9565b60405161034b9190613543565b60405180910390f35b61036e6004803603810190610369919061355e565b6108b8565b005b61038a60048036038101906103859190613414565b610933565b6040516103979190613463565b60405180910390f35b6103ba60048036038101906103b59190613414565b610a0c565b005b6103c4610a45565b6040516103d1919061335e565b60405180910390f35b6103f460048036038101906103ef9190613414565b610ad9565b6040516104019190613463565b60405180910390f35b610424600480360381019061041f91906135d5565b610aed565b6040516104319190613611565b60405180910390f35b610454600480360381019061044f91906135d5565b610b56565b005b610470600480360381019061046b91906135d5565b610b70565b60405161047d919061364b565b60405180910390f35b6104a0600480360381019061049b91906135d5565b610b82565b6040516104ad9190613463565b60405180910390f35b6104d060048036038101906104cb91906135d5565b610bca565b6040516104dd9190613463565b60405180910390f35b6104ee610bdc565b604051610501979695949392919061375f565b60405180910390f35b610524600480360381019061051f91906137e3565b610c86565b6040516105319190613463565b60405180910390f35b610554600480360381019061054f919061355e565b610d21565b60405161056191906132b3565b60405180910390f35b610572610d8c565b60405161057f9190613831565b60405180910390f35b610590610d9b565b60405161059d919061335e565b60405180910390f35b6105c060048036038101906105bb91906135d5565b610e2d565b6040516105cd9190613463565b60405180910390f35b6105de610e99565b6040516105eb9190613543565b60405180910390f35b61060e60048036038101906106099190613414565b610ea0565b60405161061b91906132b3565b60405180910390f35b61063e60048036038101906106399190613878565b610ec3565b005b61065a60048036038101906106559190613905565b610f89565b005b6106646110d1565b6040516106719190613543565b60405180910390f35b610694600480360381019061068f919061355e565b6110f5565b005b6106b060048036038101906106ab91906139a7565b611117565b6040516106bd9190613463565b60405180910390f35b6106e060048036038101906106db9190613a13565b61119e565b6040516106ed9190613ac6565b60405180910390f35b60007f7965db0b000000000000000000000000000000000000000000000000000000007bffffffffffffffffffffffffffffffffffffffffffffffffffffffff1916827bffffffffffffffffffffffffffffffffffffffffffffffffffffffff191614806107695750610768826111b8565b5b9050919050565b60606003805461077f90613b10565b80601f01602080910402602001604051908101604052809291908181526020018280546107ab90613b10565b80156107f85780601f106107cd576101008083540402835291602001916107f8565b820191906000526020600020905b8154815290600101906020018083116107db57829003601f168201915b5050505050905090565b60008061080d611222565b905061081a81858561122a565b600191505092915050565b6000600254905090565b60008061083a611222565b905061084785828561123c565b6108528585856112d0565b60019150509392505050565b6000600b6000838152602001908152602001600020600101549050919050565b6108878261085e565b610890816113c4565b61089a83836113d8565b50505050565b60006012905090565b60006108b36114ca565b905090565b6108c0611222565b73ffffffffffffffffffffffffffffffffffffffff168173ffffffffffffffffffffffffffffffffffffffff1614610924576040517f6697b23200000000000000000000000000000000000000000000000000000000815260040160405180910390fd5b61092e8282611581565b505050565b60008061093e610d8c565b90508065ffffffffffff16831061098e5782816040517fecd3f81e000000000000000000000000000000000000000000000000000000008152600401610985929190613b41565b60405180910390fd5b6109e761099a84611674565b600960008773ffffffffffffffffffffffffffffffffffffffff1673ffffffffffffffffffffffffffffffffffffffff1681526020019081526020016000206116ce90919063ffffffff16565b79ffffffffffffffffffffffffffffffffffffffffffffffffffff1691505092915050565b7f9f2df0fed2c77648de5860a4cc508cd0818c85b8b8a1ab4ceeef8d981c8956a6610a36816113c4565b610a4083836117c8565b505050565b6060610a4f61184a565b65ffffffffffff16610a5f610d8c565b65ffffffffffff1614610a9e576040517f6ff0714000000000000000000000000000000000000000000000000000000000815260040160405180910390fd5b6040518060400160405280601d81526020017f6d6f64653d626c6f636b6e756d6265722666726f6d3d64656661756c74000000815250905090565b6000610ae58383610933565b905092915050565b6000600860008373ffffffffffffffffffffffffffffffffffffffff1673ffffffffffffffffffffffffffffffffffffffff16815260200190815260200160002060009054906101000a900473ffffffffffffffffffffffffffffffffffffffff169050919050565b6000610b60611222565b9050610b6c818361185a565b5050565b6000610b7b8261196e565b9050919050565b60008060008373ffffffffffffffffffffffffffffffffffffffff1673ffffffffffffffffffffffffffffffffffffffff168152602001908152602001600020549050919050565b6000610bd5826119c6565b9050919050565b600060608060008060006060610bf06119d8565b610bf8611a13565b46306000801b600067ffffffffffffffff811115610c1957610c18613b6a565b5b604051908082528060200260200182016040528015610c475781602001602082028036833780820191505090505b507f0f00000000000000000000000000000000000000000000000000000000000000959493929190965096509650965096509650965090919293949596565b600080610c91610d8c565b90508065ffffffffffff168310610ce15782816040517fecd3f81e000000000000000000000000000000000000000000000000000000008152600401610cd8929190613b41565b60405180910390fd5b610cfd610ced84611674565b600a6116ce90919063ffffffff16565b79ffffffffffffffffffffffffffffffffffffffffffffffffffff16915050919050565b6000600b600084815260200190815260200160002060000160008373ffffffffffffffffffffffffffffffffffffffff1673ffffffffffffffffffffffffffffffffffffffff16815260200190815260200160002060009054906101000a900460ff16905092915050565b6000610d9661184a565b905090565b606060048054610daa90613b10565b80601f0160208091040260200160405190810160405280929190818152602001828054610dd690613b10565b8015610e235780601f10610df857610100808354040283529160200191610e23565b820191906000526020600020905b815481529060010190602001808311610e0657829003601f168201915b5050505050905090565b6000610e76600960008473ffffffffffffffffffffffffffffffffffffffff1673ffffffffffffffffffffffffffffffffffffffff168152602001908152602001600020611a4e565b79ffffffffffffffffffffffffffffffffffffffffffffffffffff169050919050565b6000801b81565b600080610eab611222565b9050610eb88185856112d0565b600191505092915050565b83421115610f0857836040517f4683af0e000000000000000000000000000000000000000000000000000000008152600401610eff9190613463565b60405180910390fd5b6000610f6a610f627fe48329057bfd03d55e49b547132e39cffd9c1820ad7b9d4c5307691425d15adf898989604051602001610f479493929190613b99565b60405160208183030381529060405280519060200120611ab6565b858585611ad0565b9050610f768187611b00565b610f80818861185a565b50505050505050565b83421115610fce57836040517f62791302000000000000000000000000000000000000000000000000000000008152600401610fc59190613463565b60405180910390fd5b60007f6e71edae12b1b97f4d1f60370fef10105fa2faae0126114a169c64845d6126c9888888610ffd8c611b58565b8960405160200161101396959493929190613bde565b604051602081830303815290604052805190602001209050600061103682611ab6565b9050600061104682878787611ad0565b90508973ffffffffffffffffffffffffffffffffffffffff168173ffffffffffffffffffffffffffffffffffffffff16146110ba57808a6040517f4b800e460000000000000000000000000000000000000000000000000000000081526004016110b1929190613c3f565b60405180910390fd5b6110c58a8a8a61122a565b50505050505050505050565b7f9f2df0fed2c77648de5860a4cc508cd0818c85b8b8a1ab4ceeef8d981c8956a681565b6110fe8261085e565b611107816113c4565b6111118383611581565b50505050565b6000600160008473ffffffffffffffffffffffffffffffffffffffff1673ffffffffffffffffffffffffffffffffffffffff16815260200190815260200160002060008373ffffffffffffffffffffffffffffffffffffffff1673ffffffffffffffffffffffffffffffffffffffff16815260200190815260200160002054905092915050565b6111a66131d0565b6111b08383611baf565b905092915050565b60007f01ffc9a7000000000000000000000000000000000000000000000000000000007bffffffffffffffffffffffffffffffffffffffffffffffffffffffff1916827bffffffffffffffffffffffffffffffffffffffffffffffffffffffff1916149050919050565b600033905090565b6112378383836001611c10565b505050565b60006112488484611117565b90507fffffffffffffffffffffffffffffffffffffffffffffffffffffffffffffffff81146112ca57818110156112ba578281836040517ffb8f41b20000000000000000000000000000000000000000000000000000000081526004016112b193929190613c68565b60405180910390fd5b6112c984848484036000611c10565b5b50505050565b600073ffffffffffffffffffffffffffffffffffffffff168373ffffffffffffffffffffffffffffffffffffffff16036113425760006040517f96c6fd1e0000000000000000000000000000000000000000000000000000000081526004016113399190613611565b60405180910390fd5b600073ffffffffffffffffffffffffffffffffffffffff168273ffffffffffffffffffffffffffffffffffffffff16036113b45760006040517fec442f050000000000000000000000000000000000000000000000000000000081526004016113ab9190613611565b60405180910390fd5b6113bf838383611de7565b505050565b6113d5816113d0611222565b611df7565b50565b60006113e48383610d21565b6114bf576001600b600085815260200190815260200160002060000160008473ffffffffffffffffffffffffffffffffffffffff1673ffffffffffffffffffffffffffffffffffffffff16815260200190815260200160002060006101000a81548160ff02191690831515021790555061145c611222565b73ffffffffffffffffffffffffffffffffffffffff168273ffffffffffffffffffffffffffffffffffffffff16847f2f8788117e7eff1d82e926ec794901d17c78024a50270940304540a733656f0d60405160405180910390a4600190506114c4565b600090505b92915050565b60007f000000000000000000000000000000000000000000000000000000000000000073ffffffffffffffffffffffffffffffffffffffff163073ffffffffffffffffffffffffffffffffffffffff1614801561154657507f000000000000000000000000000000000000000000000000000000000000000046145b15611573577f0000000000000000000000000000000000000000000000000000000000000000905061157e565b61157b611e48565b90505b90565b600061158d8383610d21565b15611669576000600b600085815260200190815260200160002060000160008473ffffffffffffffffffffffffffffffffffffffff1673ffffffffffffffffffffffffffffffffffffffff16815260200190815260200160002060006101000a81548160ff021916908315150217905550611606611222565b73ffffffffffffffffffffffffffffffffffffffff168273ffffffffffffffffffffffffffffffffffffffff16847ff6391f5c32d9c69d2a47ea670b442974b53935d1edc7fd64eb21e047a839171b60405160405180910390a46001905061166e565b600090505b92915050565b600065ffffffffffff80168211156116c6576030826040517f6dfcc6500000000000000000000000000000000000000000000000000000000081526004016116bd929190613ce4565b60405180910390fd5b819050919050565b6000808360000180549050905060008082905060058311156117565760006116f584611ede565b846117009190613d3c565b905061170f8760000182611fd7565b60000160009054906101000a900465ffffffffffff1665ffffffffffff168665ffffffffffff16101561174457809150611754565b6001816117519190613d70565b92505b505b600061176787600001878585611fec565b9050600081146117b95761178a876000016001836117859190613d3c565b611fd7565b60000160069054906101000a900479ffffffffffffffffffffffffffffffffffffffffffffffffffff166117bc565b60005b94505050505092915050565b600073ffffffffffffffffffffffffffffffffffffffff168273ffffffffffffffffffffffffffffffffffffffff160361183a5760006040517fec442f050000000000000000000000000000000000000000000000000000000081526004016118319190613611565b60405180910390fd5b61184660008383611de7565b5050565b600061185543611674565b905090565b600061186583610aed565b905081600860008573ffffffffffffffffffffffffffffffffffffffff1673ffffffffffffffffffffffffffffffffffffffff16815260200190815260200160002060006101000a81548173ffffffffffffffffffffffffffffffffffffffff021916908373ffffffffffffffffffffffffffffffffffffffff1602179055508173ffffffffffffffffffffffffffffffffffffffff168173ffffffffffffffffffffffffffffffffffffffff168473ffffffffffffffffffffffffffffffffffffffff167f3134e8a2e6d97e929a7e54011ea5485d7d196dd5f0ba4d4ef95803e8e3fc257f60405160405180910390a4611969818361196486612065565b612077565b505050565b60006119bf6119ba600960008573ffffffffffffffffffffffffffffffffffffffff1673ffffffffffffffffffffffffffffffffffffffff1681526020019081526020016000206122f0565b612301565b9050919050565b60006119d182612359565b9050919050565b6060611a0e60057f00000000000000000000000000000000000000000000000000000000000000006123a290919063ffffffff16565b905090565b6060611a4960067f00000000000000000000000000000000000000000000000000000000000000006123a290919063ffffffff16565b905090565b6000808260000180549050905060008114611aab57611a7c83600001600183611a779190613d3c565b611fd7565b60000160069054906101000a900479ffffffffffffffffffffffffffffffffffffffffffffffffffff16611aae565b60005b915050919050565b6000611ac9611ac36114ca565b83612452565b9050919050565b600080600080611ae288888888612493565b925092509250611af28282612587565b829350505050949350505050565b6000611b0b83611b58565b9050808214611b535782816040517f752d88c0000000000000000000000000000000000000000000000000000000008152600401611b4a929190613da4565b60405180910390fd5b505050565b6000600760008373ffffffffffffffffffffffffffffffffffffffff1673ffffffffffffffffffffffffffffffffffffffff1681526020019081526020016000206000815480929190600101919050559050919050565b611bb76131d0565b611c0882600960008673ffffffffffffffffffffffffffffffffffffffff1673ffffffffffffffffffffffffffffffffffffffff1681526020019081526020016000206126eb90919063ffffffff16565b905092915050565b600073ffffffffffffffffffffffffffffffffffffffff168473ffffffffffffffffffffffffffffffffffffffff1603611c825760006040517fe602df05000000000000000000000000000000000000000000000000000000008152600401611c799190613611565b60405180910390fd5b600073ffffffffffffffffffffffffffffffffffffffff168373ffffffffffffffffffffffffffffffffffffffff1603611cf45760006040517f94280d62000000000000000000000000000000000000000000000000000000008152600401611ceb9190613611565b60405180910390fd5b81600160008673ffffffffffffffffffffffffffffffffffffffff1673ffffffffffffffffffffffffffffffffffffffff16815260200190815260200160002060008573ffffffffffffffffffffffffffffffffffffffff1673ffffffffffffffffffffffffffffffffffffffff168152602001908152602001600020819055508015611de1578273ffffffffffffffffffffffffffffffffffffffff168473ffffffffffffffffffffffffffffffffffffffff167f8c5be1e5ebec7d5bd14f71427d1e84f3dd0314c0f7b2291e5b200ac8c7c3b92584604051611dd89190613463565b60405180910390a35b50505050565b611df28383836127c0565b505050565b611e018282610d21565b611e445780826040517fe2517d3f000000000000000000000000000000000000000000000000000000008152600401611e3b929190613dcd565b60405180910390fd5b5050565b60007f8b73c3c69bb8fe3d512ecc4cf759cc79239f7b179b0ffacaa9a75d522b39400f7f00000000000000000000000000000000000000000000000000000000000000007f00000000000000000000000000000000000000000000000000000000000000004630604051602001611ec3959493929190613df6565b60405160208183030381529060405280519060200120905090565b6000808203611ef05760009050611fd2565b60006001611efd84612871565b901c6001901b90506001818481611f1757611f16613e49565b5b048201901c90506001818481611f3057611f2f613e49565b5b048201901c90506001818481611f4957611f48613e49565b5b048201901c90506001818481611f6257611f61613e49565b5b048201901c90506001818481611f7b57611f7a613e49565b5b048201901c90506001818481611f9457611f93613e49565b5b048201901c90506001818481611fad57611fac613e49565b5b048201901c9050611fce81828581611fc857611fc7613e49565b5b04612952565b9150505b919050565b60008260005281602060002001905092915050565b60005b8183101561205a576000612003848461296b565b90508465ffffffffffff166120188783611fd7565b60000160009054906101000a900465ffffffffffff1665ffffffffffff16111561204457809250612054565b6001816120519190613d70565b93505b50611fef565b819050949350505050565b600061207082610b82565b9050919050565b8173ffffffffffffffffffffffffffffffffffffffff168373ffffffffffffffffffffffffffffffffffffffff16141580156120b35750600081115b156122eb57600073ffffffffffffffffffffffffffffffffffffffff168373ffffffffffffffffffffffffffffffffffffffff16146121d157600080612142600960008773ffffffffffffffffffffffffffffffffffffffff1673ffffffffffffffffffffffffffffffffffffffff16815260200190815260200160002061299161213d866129a7565b612a15565b79ffffffffffffffffffffffffffffffffffffffffffffffffffff16915079ffffffffffffffffffffffffffffffffffffffffffffffffffff1691508473ffffffffffffffffffffffffffffffffffffffff167fdec2bacdd2f05b59de34da9b523dff8be42e5e38e818c82fdb0bae774387a72483836040516121c6929190613e78565b60405180910390a250505b600073ffffffffffffffffffffffffffffffffffffffff168273ffffffffffffffffffffffffffffffffffffffff16146122ea5760008061225b600960008673ffffffffffffffffffffffffffffffffffffffff1673ffffffffffffffffffffffffffffffffffffffff168152602001908152602001600020612a55612256866129a7565b612a15565b79ffffffffffffffffffffffffffffffffffffffffffffffffffff16915079ffffffffffffffffffffffffffffffffffffffffffffffffffff1691508373ffffffffffffffffffffffffffffffffffffffff167fdec2bacdd2f05b59de34da9b523dff8be42e5e38e818c82fdb0bae774387a72483836040516122df929190613e78565b60405180910390a250505b5b505050565b600081600001805490509050919050565b600063ffffffff8016821115612351576020826040517f6dfcc650000000000000000000000000000000000000000000000000000000008152600401612348929190613edc565b60405180910390fd5b819050919050565b6000600760008373ffffffffffffffffffffffffffffffffffffffff1673ffffffffffffffffffffffffffffffffffffffff168152602001908152602001600020549050919050565b606060ff60001b83146123bf576123b883612a6b565b905061244c565b8180546123cb90613b10565b80601f01602080910402602001604051908101604052809291908181526020018280546123f790613b10565b80156124445780601f1061241957610100808354040283529160200191612444565b820191906000526020600020905b81548152906001019060200180831161242757829003601f168201915b505050505090505b92915050565b60006040517f190100000000000000000000000000000000000000000000000000000000000081528360028201528260228201526042812091505092915050565b60008060007f7fffffffffffffffffffffffffffffff5d576e7357a4501ddfe92f46681b20a08460001c11156124d357600060038592509250925061257d565b6000600188888888604051600081526020016040526040516124f89493929190613f05565b6020604051602081039080840390855afa15801561251a573d6000803e3d6000fd5b505050602060405103519050600073ffffffffffffffffffffffffffffffffffffffff168173ffffffffffffffffffffffffffffffffffffffff160361256e57600060016000801b9350935093505061257d565b8060008060001b935093509350505b9450945094915050565b6000600381111561259b5761259a613f4a565b5b8260038111156125ae576125ad613f4a565b5b03156126e757600160038111156125c8576125c7613f4a565b5b8260038111156125db576125da613f4a565b5b03612612576040517ff645eedf00000000000000000000000000000000000000000000000000000000815260040160405180910390fd5b6002600381111561262657612625613f4a565b5b82600381111561263957612638613f4a565b5b0361267e578060001c6040517ffce698f70000000000000000000000000000000000000000000000000000000081526004016126759190613463565b60405180910390fd5b60038081111561269157612690613f4a565b5b8260038111156126a4576126a3613f4a565b5b036126e657806040517fd78bce0c0000000000000000000000000000000000000000000000000000000081526004016126dd9190613543565b60405180910390fd5b5b5050565b6126f36131d0565b826000018263ffffffff168154811061270f5761270e613f79565b5b906000526020600020016040518060400160405290816000820160009054906101000a900465ffffffffffff1665ffffffffffff1665ffffffffffff1681526020016000820160069054906101000a900479ffffffffffffffffffffffffffffffffffffffffffffffffffff1679ffffffffffffffffffffffffffffffffffffffffffffffffffff1679ffffffffffffffffffffffffffffffffffffffffffffffffffff1681525050905092915050565b6127cb838383612adf565b600073ffffffffffffffffffffffffffffffffffffffff168373ffffffffffffffffffffffffffffffffffffffff1603612861576000612809610825565b90506000612815612d04565b90508082111561285e5781816040517f1cb15d26000000000000000000000000000000000000000000000000000000008152600401612855929190613e78565b60405180910390fd5b50505b61286c838383612d28565b505050565b600080600090506000608084901c111561289357608083901c92506080810190505b6000604084901c11156128ae57604083901c92506040810190505b6000602084901c11156128c957602083901c92506020810190505b6000601084901c11156128e457601083901c92506010810190505b6000600884901c11156128ff57600883901c92506008810190505b6000600484901c111561291a57600483901c92506004810190505b6000600284901c111561293557600283901c92506002810190505b6000600184901c1115612949576001810190505b80915050919050565b60008183106129615781612963565b825b905092915050565b6000600282841861297c9190613fa8565b8284166129899190613d70565b905092915050565b6000818361299f9190613fd9565b905092915050565b600079ffffffffffffffffffffffffffffffffffffffffffffffffffff8016821115612a0d5760d0826040517f6dfcc650000000000000000000000000000000000000000000000000000000008152600401612a04929190614062565b60405180910390fd5b819050919050565b600080612a49612a23610d8c565b612a39612a2f88611a4e565b868863ffffffff16565b87612de29092919063ffffffff16565b91509150935093915050565b60008183612a63919061408b565b905092915050565b60606000612a7883612dff565b90506000602067ffffffffffffffff811115612a9757612a96613b6a565b5b6040519080825280601f01601f191660200182016040528015612ac95781602001600182028036833780820191505090505b5090508181528360208201528092505050919050565b600073ffffffffffffffffffffffffffffffffffffffff168373ffffffffffffffffffffffffffffffffffffffff1603612b31578060026000828254612b259190613d70565b92505081905550612c04565b60008060008573ffffffffffffffffffffffffffffffffffffffff1673ffffffffffffffffffffffffffffffffffffffff16815260200190815260200160002054905081811015612bbd578381836040517fe450d38c000000000000000000000000000000000000000000000000000000008152600401612bb493929190613c68565b60405180910390fd5b8181036000808673ffffffffffffffffffffffffffffffffffffffff1673ffffffffffffffffffffffffffffffffffffffff16815260200190815260200160002081905550505b600073ffffffffffffffffffffffffffffffffffffffff168273ffffffffffffffffffffffffffffffffffffffff1603612c4d5780600260008282540392505081905550612c9a565b806000808473ffffffffffffffffffffffffffffffffffffffff1673ffffffffffffffffffffffffffffffffffffffff168152602001908152602001600020600082825401925050819055505b8173ffffffffffffffffffffffffffffffffffffffff168373ffffffffffffffffffffffffffffffffffffffff167fddf252ad1be2c89b69c2b068fc378daa952ba7f163c4a11628f55a4df523b3ef83604051612cf79190613463565b60405180910390a3505050565b600079ffffffffffffffffffffffffffffffffffffffffffffffffffff8016905090565b600073ffffffffffffffffffffffffffffffffffffffff168373ffffffffffffffffffffffffffffffffffffffff1603612d7557612d72600a612a55612d6d846129a7565b612a15565b50505b600073ffffffffffffffffffffffffffffffffffffffff168273ffffffffffffffffffffffffffffffffffffffff1603612dc257612dbf600a612991612dba846129a7565b612a15565b50505b612ddd612dce84610aed565b612dd784610aed565b83612077565b505050565b600080612df3856000018585612e4f565b91509150935093915050565b60008060ff8360001c169050601f811115612e46576040517fb3512b0c00000000000000000000000000000000000000000000000000000000815260040160405180910390fd5b80915050919050565b60008060008580549050905060008111156130e0576000612e7c87600184612e779190613d3c565b611fd7565b6040518060400160405290816000820160009054906101000a900465ffffffffffff1665ffffffffffff1665ffffffffffff1681526020016000820160069054906101000a900479ffffffffffffffffffffffffffffffffffffffffffffffffffff1679ffffffffffffffffffffffffffffffffffffffffffffffffffff1679ffffffffffffffffffffffffffffffffffffffffffffffffffff168152505090508565ffffffffffff16816000015165ffffffffffff161115612f6b576040517f2520601d00000000000000000000000000000000000000000000000000000000815260040160405180910390fd5b8565ffffffffffff16816000015165ffffffffffff1603612fef5784612f9d88600185612f989190613d3c565b611fd7565b60000160066101000a81548179ffffffffffffffffffffffffffffffffffffffffffffffffffff021916908379ffffffffffffffffffffffffffffffffffffffffffffffffffff1602179055506130cf565b8660405180604001604052808865ffffffffffff1681526020018779ffffffffffffffffffffffffffffffffffffffffffffffffffff168152509080600181540180825580915050600190039060005260206000200160009091909190915060008201518160000160006101000a81548165ffffffffffff021916908365ffffffffffff16021790555060208201518160000160066101000a81548179ffffffffffffffffffffffffffffffffffffffffffffffffffff021916908379ffffffffffffffffffffffffffffffffffffffffffffffffffff16021790555050505b8060200151859350935050506131c8565b8560405180604001604052808765ffffffffffff1681526020018679ffffffffffffffffffffffffffffffffffffffffffffffffffff168152509080600181540180825580915050600190039060005260206000200160009091909190915060008201518160000160006101000a81548165ffffffffffff021916908365ffffffffffff16021790555060208201518160000160066101000a81548179ffffffffffffffffffffffffffffffffffffffffffffffffffff021916908379ffffffffffffffffffffffffffffffffffffffffffffffffffff160217905550505060008492509250505b935093915050565b6040518060400160405280600065ffffffffffff168152602001600079ffffffffffffffffffffffffffffffffffffffffffffffffffff1681525090565b600080fd5b60007fffffffff0000000000000000000000000000000000000000000000000000000082169050919050565b61324881613213565b811461325357600080fd5b50565b6000813590506132658161323f565b92915050565b6000602082840312156132815761328061320e565b5b600061328f84828501613256565b91505092915050565b60008115159050919050565b6132ad81613298565b82525050565b60006020820190506132c860008301846132a4565b92915050565b600081519050919050565b600082825260208201905092915050565b60005b838110156133085780820151818401526020810190506132ed565b60008484015250505050565b6000601f19601f8301169050919050565b6000613330826132ce565b61333a81856132d9565b935061334a8185602086016132ea565b61335381613314565b840191505092915050565b600060208201905081810360008301526133788184613325565b905092915050565b600073ffffffffffffffffffffffffffffffffffffffff82169050919050565b60006133ab82613380565b9050919050565b6133bb816133a0565b81146133c657600080fd5b50565b6000813590506133d8816133b2565b92915050565b6000819050919050565b6133f1816133de565b81146133fc57600080fd5b50565b60008135905061340e816133e8565b92915050565b6000806040838503121561342b5761342a61320e565b5b6000613439858286016133c9565b925050602061344a858286016133ff565b9150509250929050565b61345d816133de565b82525050565b60006020820190506134786000830184613454565b92915050565b6000806000606084860312156134975761349661320e565b5b60006134a5868287016133c9565b93505060206134b6868287016133c9565b92505060406134c7868287016133ff565b9150509250925092565b6000819050919050565b6134e4816134d1565b81146134ef57600080fd5b50565b600081359050613501816134db565b92915050565b60006020828403121561351d5761351c61320e565b5b600061352b848285016134f2565b91505092915050565b61353d816134d1565b82525050565b60006020820190506135586000830184613534565b92915050565b600080604083850312156135755761357461320e565b5b6000613583858286016134f2565b9250506020613594858286016133c9565b9150509250929050565b600060ff82169050919050565b6135b48161359e565b82525050565b60006020820190506135cf60008301846135ab565b92915050565b6000602082840312156135eb576135ea61320e565b5b60006135f9848285016133c9565b91505092915050565b61360b816133a0565b82525050565b60006020820190506136266000830184613602565b92915050565b600063ffffffff82169050919050565b6136458161362c565b82525050565b6000602082019050613660600083018461363c565b92915050565b60007fff0000000000000000000000000000000000000000000000000000000000000082169050919050565b61369b81613666565b82525050565b600081519050919050565b600082825260208201905092915050565b6000819050602082019050919050565b6136d6816133de565b82525050565b60006136e883836136cd565b60208301905092915050565b6000602082019050919050565b600061370c826136a1565b61371681856136ac565b9350613721836136bd565b8060005b8381101561375257815161373988826136dc565b9750613744836136f4565b925050600181019050613725565b5085935050505092915050565b600060e082019050613774600083018a613692565b81810360208301526137868189613325565b9050818103604083015261379a8188613325565b90506137a96060830187613454565b6137b66080830186613602565b6137c360a0830185613534565b81810360c08301526137d58184613701565b905098975050505050505050565b6000602082840312156137f9576137f861320e565b5b6000613807848285016133ff565b91505092915050565b600065ffffffffffff82169050919050565b61382b81613810565b82525050565b60006020820190506138466000830184613822565b92915050565b6138558161359e565b811461386057600080fd5b50565b6000813590506138728161384c565b92915050565b60008060008060008060c087890312156138955761389461320e565b5b60006138a389828a016133c9565b96505060206138b489828a016133ff565b95505060406138c589828a016133ff565b94505060606138d689828a01613863565b93505060806138e789828a016134f2565b92505060a06138f889828a016134f2565b9150509295509295509295565b600080600080600080600060e0888a0312156139245761392361320e565b5b60006139328a828b016133c9565b97505060206139438a828b016133c9565b96505060406139548a828b016133ff565b95505060606139658a828b016133ff565b94505060806139768a828b01613863565b93505060a06139878a828b016134f2565b92505060c06139988a828b016134f2565b91505092959891949750929550565b600080604083850312156139be576139bd61320e565b5b60006139cc858286016133c9565b92505060206139dd858286016133c9565b9150509250929050565b6139f08161362c565b81146139fb57600080fd5b50565b600081359050613a0d816139e7565b92915050565b60008060408385031215613a2a57613a2961320e565b5b6000613a38858286016133c9565b9250506020613a49858286016139fe565b9150509250929050565b613a5c81613810565b82525050565b600079ffffffffffffffffffffffffffffffffffffffffffffffffffff82169050919050565b613a9181613a62565b82525050565b604082016000820151613aad6000850182613a53565b506020820151613ac06020850182613a88565b50505050565b6000604082019050613adb6000830184613a97565b92915050565b7f4e487b7100000000000000000000000000000000000000000000000000000000600052602260045260246000fd5b60006002820490506001821680613b2857607f821691505b602082108103613b3b57613b3a613ae1565b5b50919050565b6000604082019050613b566000830185613454565b613b636020830184613822565b9392505050565b7f4e487b7100000000000000000000000000000000000000000000000000000000600052604160045260246000fd5b6000608082019050613bae6000830187613534565b613bbb6020830186613602565b613bc86040830185613454565b613bd56060830184613454565b95945050505050565b600060c082019050613bf36000830189613534565b613c006020830188613602565b613c0d6040830187613602565b613c1a6060830186613454565b613c276080830185613454565b613c3460a0830184613454565b979650505050505050565b6000604082019050613c546000830185613602565b613c616020830184613602565b9392505050565b6000606082019050613c7d6000830186613602565b613c8a6020830185613454565b613c976040830184613454565b949350505050565b6000819050919050565b6000819050919050565b6000613cce613cc9613cc484613c9f565b613ca9565b61359e565b9050919050565b613cde81613cb3565b82525050565b6000604082019050613cf96000830185613cd5565b613d066020830184613454565b9392505050565b7f4e487b7100000000000000000000000000000000000000000000000000000000600052601160045260246000fd5b6000613d47826133de565b9150613d52836133de565b9250828203905081811115613d6a57613d69613d0d565b5b92915050565b6000613d7b826133de565b9150613d86836133de565b9250828201905080821115613d9e57613d9d613d0d565b5b92915050565b6000604082019050613db96000830185613602565b613dc66020830184613454565b9392505050565b6000604082019050613de26000830185613602565b613def6020830184613534565b9392505050565b600060a082019050613e0b6000830188613534565b613e186020830187613534565b613e256040830186613534565b613e326060830185613454565b613e3f6080830184613602565b9695505050505050565b7f4e487b7100000000000000000000000000000000000000000000000000000000600052601260045260246000fd5b6000604082019050613e8d6000830185613454565b613e9a6020830184613454565b9392505050565b6000819050919050565b6000613ec6613ec1613ebc84613ea1565b613ca9565b61359e565b9050919050565b613ed681613eab565b82525050565b6000604082019050613ef16000830185613ecd565b613efe6020830184613454565b9392505050565b6000608082019050613f1a6000830187613534565b613f2760208301866135ab565b613f346040830185613534565b613f416060830184613534565b95945050505050565b7f4e487b7100000000000000000000000000000000000000000000000000000000600052602160045260246000fd5b7f4e487b7100000000000000000000000000000000000000000000000000000000600052603260045260246000fd5b6000613fb3826133de565b9150613fbe836133de565b925082613fce57613fcd613e49565b5b828204905092915050565b6000613fe482613a62565b9150613fef83613a62565b9250828203905079ffffffffffffffffffffffffffffffffffffffffffffffffffff81111561402157614020613d0d565b5b92915050565b6000819050919050565b600061404c61404761404284614027565b613ca9565b61359e565b9050919050565b61405c81614031565b82525050565b60006040820190506140776000830185614053565b6140846020830184613454565b9392505050565b600061409682613a62565b91506140a183613a62565b9250828201905079ffffffffffffffffffffffffffffffffffffffffffffffffffff8111156140d3576140d2613d0d565b5b9291505056fea264697066735822122003ddc02faa9c9c0dbfc141b2ee59f51449a8d475417e8a004b93e9b616411b5464736f6c63430008180033",
  "linkReferences": {},
  "deployedLinkReferences": {}
}